:020000040000FA
:10000000000002284D30AE000130AF00803000000B
:10001000000005210000000083120000B1002F083D
:10002000B0004F30B2000130B3008312000030083E
:10003000B4003108B500FF30B007031CB103350828
:10004000340403199A2804303207B400B501B50D01
:100050003308B5073408AE003508AF008030000023
:10006000000005210000000083120000B7002F08E7
:10007000B6003208AE003308AF0080300000000048
:1000800005210000000083120000B900B5002F0810
:10009000B400B80002303207B400B501B50D330822
:1000A000B5073408AE003508AF008030000000000E
:1000B00005210000000083120000B500BB002F08DE
:1000C000BA00B400831200003608BA003708BB003B
:1000D000FF30B607031CB7033B083A040319932803
:1000E0003808AE003908AF00803000000000F22070
:1000F0000000000083120000BA00340883120313CA
:100100008400831383120000351883173A08831282
:100110000313800083120000B80A0319B90AB40A55
:100120000319B50A6228063083120000B2070318CB
:10013000B30A1528000000009E28080083168501D8
:10014000831285010130BC00BD0100303D02031D5A
:10015000AB2801303C02031CDC2800303D02031DAB
:10016000B32807303C020318DC283C03BE000030F3
:100170008A00BE303E0703188A0A8200C428C828B5
:10018000CC28D028D428D828013083128500DF2835
:10019000023083128500DF28053083128500DF28B6
:1001A000063083128500DF28073083128500DF28A0
:1001B000163083128500DF280430831285007830E2
:1001C000AF000030262183128501BC0A0319BD0A45
:1001D00000303D02031DEE2807303C02031CA52819
:1001E000A2280800003A0319F928803A03190029C7
:1001F00000342E08840083132F188317000808008A
:100200002F088A002E0882000800003A03190D29E1
:10021000803A03191729AF0100342E088400831394
:100220002F1883170008AF00840A00080800000098
:1002300000000021AD00AE0FAF03AF0A00000000C8
:100240000021AC002D08AF002C080800C0002F08CA
:10025000BF00C101C20140084202031D31293F080D
:10026000410203184C29FB30C3000430C400FF30A6
:100270004307C500FF30C60044080318440FC607F3
:100280004508C3004608C40046084504031D372935
:10029000C10A0319C20A2B2908000134003455345D
:0C02A000013447340034013400340034D1
:02400E00D73F9A
:00000001FF
